{
  "_format": "hh-sol-artifact-1",
  "contractName": "CrowdFunding",
  "sourceName": "contracts/CrowdFunding.sol",
  "abi": [
    {
      "inputs": [
        {
          "internalType": "address",
          "name": "_owner",
          "type": "address"
        },
        {
          "internalType": "string",
          "name": "_title",
          "type": "string"
        },
        {
          "internalType": "string",
          "name": "_description",
          "type": "string"
        },
        {
          "internalType": "uint256",
          "name": "_target",
          "type": "uint256"
        },
        {
          "internalType": "uint256",
          "name": "_deadline",
          "type": "uint256"
        }
      ],
      "name": "createIdea",
      "outputs": [
        {
          "internalType": "uint256",
          "name": "",
          "type": "uint256"
        }
      ],
      "stateMutability": "nonpayable",
      "type": "function"
    },
    {
      "inputs": [
        {
          "internalType": "uint256",
          "name": "_id",
          "type": "uint256"
        }
      ],
      "name": "donateToIdea",
      "outputs": [],
      "stateMutability": "payable",
      "type": "function"
    },
    {
      "inputs": [
        {
          "internalType": "uint256",
          "name": "_id",
          "type": "uint256"
        }
      ],
      "name": "getDonators",
      "outputs": [
        {
          "internalType": "address[]",
          "name": "",
          "type": "address[]"
        },
        {
          "internalType": "uint256[]",
          "name": "",
          "type": "uint256[]"
        }
      ],
      "stateMutability": "view",
      "type": "function"
    },
    {
      "inputs": [],
      "name": "getIdeas",
      "outputs": [
        {
          "components": [
            {
              "internalType": "address",
              "name": "owner",
              "type": "address"
            },
            {
              "internalType": "string",
              "name": "title",
              "type": "string"
            },
            {
              "internalType": "string",
              "name": "description",
              "type": "string"
            },
            {
              "internalType": "uint256",
              "name": "target",
              "type": "uint256"
            },
            {
              "internalType": "uint256",
              "name": "deadline",
              "type": "uint256"
            },
            {
              "internalType": "uint256",
              "name": "amountCollected",
              "type": "uint256"
            },
            {
              "internalType": "address[]",
              "name": "donators",
              "type": "address[]"
            },
            {
              "internalType": "uint256[]",
              "name": "donations",
              "type": "uint256[]"
            }
          ],
          "internalType": "struct CrowdFunding.Idea[]",
          "name": "",
          "type": "tuple[]"
        }
      ],
      "stateMutability": "view",
      "type": "function"
    },
    {
      "inputs": [
        {
          "internalType": "uint256",
          "name": "",
          "type": "uint256"
        }
      ],
      "name": "ideas",
      "outputs": [
        {
          "internalType": "address",
          "name": "owner",
          "type": "address"
        },
        {
          "internalType": "string",
          "name": "title",
          "type": "string"
        },
        {
          "internalType": "string",
          "name": "description",
          "type": "string"
        },
        {
          "internalType": "uint256",
          "name": "target",
          "type": "uint256"
        },
        {
          "internalType": "uint256",
          "name": "deadline",
          "type": "uint256"
        },
        {
          "internalType": "uint256",
          "name": "amountCollected",
          "type": "uint256"
        }
      ],
      "stateMutability": "view",
      "type": "function"
    },
    {
      "inputs": [],
      "name": "numberOfIdeas",
      "outputs": [
        {
          "internalType": "uint256",
          "name": "",
          "type": "uint256"
        }
      ],
      "stateMutability": "view",
      "type": "function"
    }
  ],
  "bytecode": "0x6080604052600060015534801561001557600080fd5b50611791806100256000396000f3fe6080604052600436106100555760003560e01c8063044858411461005a5780630fa91fa9146100855780631bece6e4146100c357806395b53837146100ee5780639b1ea13f14610130578063f284d6b31461016d575b600080fd5b34801561006657600080fd5b5061006f610189565b60405161007c9190610ded565b60405180910390f35b34801561009157600080fd5b506100ac60048036038101906100a79190610e4f565b6104cd565b6040516100ba929190610f5a565b60405180910390f35b3480156100cf57600080fd5b506100d86105dd565b6040516100e59190610fa0565b60405180910390f35b3480156100fa57600080fd5b5061011560048036038101906101109190610e4f565b6105e3565b60405161012796959493929190611014565b60405180910390f35b34801561013c57600080fd5b50610157600480360381019061015291906111e4565b61074f565b6040516101649190610fa0565b60405180910390f35b61018760048036038101906101829190610e4f565b610863565b005b6060600060015467ffffffffffffffff8111156101a9576101a86110b9565b5b6040519080825280602002602001820160405280156101e257816020015b6101cf6109c3565b8152602001906001900390816101c75790505b50905060005b6001548110156104c5576000806000838152602001908152602001600020905080604051806101000160405290816000820160009054906101000a900473ffffffffffffffffffffffffffffffffffffffff1673ffffffffffffffffffffffffffffffffffffffff1673ffffffffffffffffffffffffffffffffffffffff16815260200160018201805461027b906112c6565b80601f01602080910402602001604051908101604052809291908181526020018280546102a7906112c6565b80156102f45780601f106102c9576101008083540402835291602001916102f4565b820191906000526020600020905b8154815290600101906020018083116102d757829003601f168201915b5050505050815260200160028201805461030d906112c6565b80601f0160208091040260200160405190810160405280929190818152602001828054610339906112c6565b80156103865780601f1061035b57610100808354040283529160200191610386565b820191906000526020600020905b81548152906001019060200180831161036957829003601f168201915b505050505081526020016003820154815260200160048201548152602001600582015481526020016006820180548060200260200160405190810160405280929190818152602001828054801561043257602002820191906000526020600020905b8160009054906101000a900473ffffffffffffffffffffffffffffffffffffffff1673ffffffffffffffffffffffffffffffffffffffff16815260200190600101908083116103e8575b505050505081526020016007820180548060200260200160405190810160405280929190818152602001828054801561048a57602002820191906000526020600020905b815481526020019060010190808311610476575b5050505050815250508383815181106104a6576104a56112f7565b5b60200260200101819052505080806104bd90611355565b9150506101e8565b508091505090565b6060806000808481526020019081526020016000206006016000808581526020019081526020016000206007018180548060200260200160405190810160405280929190818152602001828054801561057b57602002820191906000526020600020905b8160009054906101000a900473ffffffffffffffffffffffffffffffffffffffff1673ffffffffffffffffffffffffffffffffffffffff1681526020019060010190808311610531575b50505050509150808054806020026020016040519081016040528092919081815260200182805480156105cd57602002820191906000526020600020905b8154815260200190600101908083116105b9575b5050505050905091509150915091565b60015481565b60006020528060005260406000206000915090508060000160009054906101000a900473ffffffffffffffffffffffffffffffffffffffff169080600101805461062c906112c6565b80601f0160208091040260200160405190810160405280929190818152602001828054610658906112c6565b80156106a55780601f1061067a576101008083540402835291602001916106a5565b820191906000526020600020905b81548152906001019060200180831161068857829003601f168201915b5050505050908060020180546106ba906112c6565b80601f01602080910402602001604051908101604052809291908181526020018280546106e6906112c6565b80156107335780601f1061070857610100808354040283529160200191610733565b820191906000526020600020905b81548152906001019060200180831161071657829003601f168201915b5050505050908060030154908060040154908060050154905086565b60008060008060015481526020019081526020016000209050428160040154106107ae576040517f08c379a00000000000000000000000000000000000000000000000000000000081526004016107a59061140f565b60405180910390fd5b868160000160006101000a81548173ffffffffffffffffffffffffffffffffffffffff021916908373ffffffffffffffffffffffffffffffffffffffff1602179055508581600101908161080291906115db565b508481600201908161081491906115db565b50838160030181905550828160040181905550600081600501819055506001600081548092919061084490611355565b91905055506001805461085791906116ad565b91505095945050505050565b60003490506000806000848152602001908152602001600020905080600601339080600181540180825580915050600190039060005260206000200160009091909190916101000a81548173ffffffffffffffffffffffffffffffffffffffff021916908373ffffffffffffffffffffffffffffffffffffffff1602179055508060070182908060018154018082558091505060019003906000526020600020016000909190919091505560008160000160009054906101000a900473ffffffffffffffffffffffffffffffffffffffff1673ffffffffffffffffffffffffffffffffffffffff168360405161095890611712565b60006040518083038185875af1925050503d8060008114610995576040519150601f19603f3d011682016040523d82523d6000602084013e61099a565b606091505b5050905080156109bd578282600501546109b49190611727565b82600501819055505b50505050565b604051806101000160405280600073ffffffffffffffffffffffffffffffffffffffff168152602001606081526020016060815260200160008152602001600081526020016000815260200160608152602001606081525090565b600081519050919050565b600082825260208201905092915050565b6000819050602082019050919050565b600073ffffffffffffffffffffffffffffffffffffffff82169050919050565b6000610a7582610a4a565b9050919050565b610a8581610a6a565b82525050565b600081519050919050565b600082825260208201905092915050565b60005b83811015610ac5578082015181840152602081019050610aaa565b60008484015250505050565b6000601f19601f8301169050919050565b6000610aed82610a8b565b610af78185610a96565b9350610b07818560208601610aa7565b610b1081610ad1565b840191505092915050565b6000819050919050565b610b2e81610b1b565b82525050565b600081519050919050565b600082825260208201905092915050565b6000819050602082019050919050565b6000610b6c8383610a7c565b60208301905092915050565b6000602082019050919050565b6000610b9082610b34565b610b9a8185610b3f565b9350610ba583610b50565b8060005b83811015610bd6578151610bbd8882610b60565b9750610bc883610b78565b925050600181019050610ba9565b5085935050505092915050565b600081519050919050565b600082825260208201905092915050565b6000819050602082019050919050565b6000610c1b8383610b25565b60208301905092915050565b6000602082019050919050565b6000610c3f82610be3565b610c498185610bee565b9350610c5483610bff565b8060005b83811015610c85578151610c6c8882610c0f565b9750610c7783610c27565b925050600181019050610c58565b5085935050505092915050565b600061010083016000830151610cab6000860182610a7c565b5060208301518482036020860152610cc38282610ae2565b91505060408301518482036040860152610cdd8282610ae2565b9150506060830151610cf26060860182610b25565b506080830151610d056080860182610b25565b5060a0830151610d1860a0860182610b25565b5060c083015184820360c0860152610d308282610b85565b91505060e083015184820360e0860152610d4a8282610c34565b9150508091505092915050565b6000610d638383610c92565b905092915050565b6000602082019050919050565b6000610d8382610a1e565b610d8d8185610a29565b935083602082028501610d9f85610a3a565b8060005b85811015610ddb5784840389528151610dbc8582610d57565b9450610dc783610d6b565b925060208a01995050600181019050610da3565b50829750879550505050505092915050565b60006020820190508181036000830152610e078184610d78565b905092915050565b6000604051905090565b600080fd5b600080fd5b610e2c81610b1b565b8114610e3757600080fd5b50565b600081359050610e4981610e23565b92915050565b600060208284031215610e6557610e64610e19565b5b6000610e7384828501610e3a565b91505092915050565b600082825260208201905092915050565b6000610e9882610b34565b610ea28185610e7c565b9350610ead83610b50565b8060005b83811015610ede578151610ec58882610b60565b9750610ed083610b78565b925050600181019050610eb1565b5085935050505092915050565b600082825260208201905092915050565b6000610f0782610be3565b610f118185610eeb565b9350610f1c83610bff565b8060005b83811015610f4d578151610f348882610c0f565b9750610f3f83610c27565b925050600181019050610f20565b5085935050505092915050565b60006040820190508181036000830152610f748185610e8d565b90508181036020830152610f888184610efc565b90509392505050565b610f9a81610b1b565b82525050565b6000602082019050610fb56000830184610f91565b92915050565b610fc481610a6a565b82525050565b600082825260208201905092915050565b6000610fe682610a8b565b610ff08185610fca565b9350611000818560208601610aa7565b61100981610ad1565b840191505092915050565b600060c0820190506110296000830189610fbb565b818103602083015261103b8188610fdb565b9050818103604083015261104f8187610fdb565b905061105e6060830186610f91565b61106b6080830185610f91565b61107860a0830184610f91565b979650505050505050565b61108c81610a6a565b811461109757600080fd5b50565b6000813590506110a981611083565b92915050565b600080fd5b600080fd5b7f4e487b7100000000000000000000000000000000000000000000000000000000600052604160045260246000fd5b6110f182610ad1565b810181811067ffffffffffffffff821117156111105761110f6110b9565b5b80604052505050565b6000611123610e0f565b905061112f82826110e8565b919050565b600067ffffffffffffffff82111561114f5761114e6110b9565b5b61115882610ad1565b9050602081019050919050565b82818337600083830152505050565b600061118761118284611134565b611119565b9050828152602081018484840111156111a3576111a26110b4565b5b6111ae848285611165565b509392505050565b600082601f8301126111cb576111ca6110af565b5b81356111db848260208601611174565b91505092915050565b600080600080600060a08688031215611200576111ff610e19565b5b600061120e8882890161109a565b955050602086013567ffffffffffffffff81111561122f5761122e610e1e565b5b61123b888289016111b6565b945050604086013567ffffffffffffffff81111561125c5761125b610e1e565b5b611268888289016111b6565b935050606061127988828901610e3a565b925050608061128a88828901610e3a565b9150509295509295909350565b7f4e487b7100000000000000000000000000000000000000000000000000000000600052602260045260246000fd5b600060028204905060018216806112de57607f821691505b6020821081036112f1576112f0611297565b5b50919050565b7f4e487b7100000000000000000000000000000000000000000000000000000000600052603260045260246000fd5b7f4e487b7100000000000000000000000000000000000000000000000000000000600052601160045260246000fd5b600061136082610b1b565b91507fffffffffffffffffffffffffffffffffffffffffffffffffffffffffffffffff820361139257611391611326565b5b600182019050919050565b7f54686520646561646c696e6520646174652073686f756c6420626520696e207460008201527f6865206675747572652e00000000000000000000000000000000000000000000602082015250565b60006113f9602a83610fca565b91506114048261139d565b604082019050919050565b60006020820190508181036000830152611428816113ec565b9050919050565b60008190508160005260206000209050919050565b60006020601f8301049050919050565b600082821b905092915050565b6000600883026114917fffffffffffffffffffffffffffffffffffffffffffffffffffffffffffffffff82611454565b61149b8683611454565b95508019841693508086168417925050509392505050565b6000819050919050565b60006114d86114d36114ce84610b1b565b6114b3565b610b1b565b9050919050565b6000819050919050565b6114f2836114bd565b6115066114fe826114df565b848454611461565b825550505050565b600090565b61151b61150e565b6115268184846114e9565b505050565b5b8181101561154a5761153f600082611513565b60018101905061152c565b5050565b601f82111561158f576115608161142f565b61156984611444565b81016020851015611578578190505b61158c61158485611444565b83018261152b565b50505b505050565b600082821c905092915050565b60006115b260001984600802611594565b1980831691505092915050565b60006115cb83836115a1565b9150826002028217905092915050565b6115e482610a8b565b67ffffffffffffffff8111156115fd576115fc6110b9565b5b61160782546112c6565b61161282828561154e565b600060209050601f8311600181146116455760008415611633578287015190505b61163d85826115bf565b8655506116a5565b601f1984166116538661142f565b60005b8281101561167b57848901518255600182019150602085019450602081019050611656565b868310156116985784890151611694601f8916826115a1565b8355505b6001600288020188555050505b505050505050565b60006116b882610b1b565b91506116c383610b1b565b92508282039050818111156116db576116da611326565b5b92915050565b600081905092915050565b50565b60006116fc6000836116e1565b9150611707826116ec565b600082019050919050565b600061171d826116ef565b9150819050919050565b600061173282610b1b565b915061173d83610b1b565b925082820190508082111561175557611754611326565b5b9291505056fea26469706673582212200b34de4e031d2197a3e1270026494ce1d19818a3a83a90419a3bfac2d554380664736f6c63430008120033",
  "linkReferences": {},
  "deployedLinkReferences": {}
}